:1000000012C02CC02BC02AC029C028C027C026C0BF
:1000100025C08AC223C023C234C220C055C21EC01C
:100020001DC01CC01BC011241FBECFE5D4E0DEBF25
:10003000CDBF10E0A0E6B0E0ECE7F6E002C005902E
:100040000D92A83BB107D9F721E0A8EBB0E001C0C1
:100050001D92AA3EB207E1F741D10EC3D1CF2FEFD7
:1000600030E0281B390B261737071CF0261B370BEF
:1000700004C0CB01821B930B9C0181E02B30310526
:100080000CF080E0089590BD89B988E18AB986E8CE
:1000900080BD579A0895E091C9008091B8008E17ED
:1000A00049F0EF5FEF71E093C900F0E0E653FE4FD7
:1000B0008081089580E008959091BA009F5F20911B
:1000C000B900921749F0E92FF0E0E653FF4F808323
:1000D0009093BA00559A0895FFCF1F93CF93DF9363
:1000E000EC0110E002C0E8DF1F5FFE01E10FF11D2F
:1000F00080818111F8CFDF91CF911F9108958AE01F
:10010000DBDF8DE0D9CFAF92BF92CF92DF92EF923B
:10011000FF920F931F93CF93DF93CDB7DEB7CDB68A
:10012000DEB68A309105A8F184369105A0F1883EAB
:1001300023E0920710F044E001C043E0EDB7FEB7C2
:10014000E41BF1090FB6F894FEBF0FBEEDBF0DB76B
:100150001EB70F5F1F4FF42E2AE030E0B90178D2AE
:10016000582FCB01F801EF0DF11D3197505D5083F1
:10017000FA94A1F77801A42EB12C04C0F701819163
:100180007F019ADFC701801B910B8A159B05B4F391
:1001900004C041E0D3CF42E0D1CF0FB6F894DEBE29
:1001A0000FBECDBEDF91CF911F910F91FF90EF90C9
:1001B000DF90CF90BF90AF900895E091B90080910B
:1001C000BA008E1749F0EF5FE093B900F0E0E65314
:1001D000FF4F80818CB90895559808958BE16CDFAD
:1001E0008BE56ADF82E368DF8AE466DF8BE164DF48
:1001F0008BE562DF88E460CF1F93CF93DF931F927C
:10020000CDB7DEB7182F8BE1698356DF8BE554DF5E
:10021000812F90E078DF8BE34FDF6981862F90E0BC
:1002200072DF88E40F90DF91CF911F9145CF8BE172
:1002300043DF8BE541DF8FE33FDF82E33DDF85E393
:100240003BDF8CE639CFCF93C9DFCAE08AE234DFE7
:10025000C150E1F781E690E040DFCBE08AE22CDF9D
:10026000C150E1F74CDF4BDF8FE790E036DF63E111
:1002700083E0C2DF88E890E030DF66E283E0BCDF45
:1002800081E990E02ADF60E085E0B6DF8AE990E06E
:1002900024DF63E185E0B0DF81EA90E01EDF60E00B
:1002A00087E0AADF86EA90E018DF60E08AE0A4DF5A
:1002B0008FEA90E012DF60E08CE09EDFC2E38AE22A
:1002C000FBDEC150E1F7CF910895AB9AAA9808954B
:1002D000AB98AA9A0895AB98AA980895BF9AC79A1E
:1002E00084B38C6084BBAB98AA9883E390E0CBDEA8
:1002F00086B1876086B93E9A3D9A87B1856087B995
:10030000339A379A78949FDF92DF369A83B7856065
:1003100083BF89B7816089BF8FB581608FBD8FB57D
:10032000806C8FBD8EB581608EBDB99A8FEF90E0E5
:100330009BBD8ABDC1E0C7982FEF80E792E02150B6
:1003400080409040E1F700C00000C79A2FEF80E79F
:1003500092E0215080409040E1F700C0000069E049
:100360008AE04ADF8091BB00813029F48FE2A4DE6D
:100370001092BB0004C08CE59FDEC093BB0080914F
:10038000BC008130C1F61092BC006AE083E034DF2B
:100390008091C2008A3010F480E28EDE8091C2002B
:1003A000843610F480E288DE8091C20090E0ABDEFB
:1003B0006CE183E021DF8091C1008A3010F480E29B
:1003C0007BDE8091C100843610F480E275DE80917E
:1003D000C10090E098DE6AE087E00EDF8091C00007
:1003E0008A3010F480E268DE8091C000843610F418
:1003F00080E262DE8091C00090E085DE6FE283E003
:10040000FBDE8091BF00882311F084E501C086E403
:1004100053DE6AE085E0F0DE8AB59BB50A9710F4FA
:1004200080E24ADE8AB59BB58436910510F480E2FD
:1004300043DE8AB59BB567DE6CE185E0DDDE809149
:10044000BE00813011F486E407C0823011F482E4EA
:1004500003C0811102C08EE42FDE369A6CCF1F924A
:100460000F920FB60F9211248F938CB1803219F432
:1004700081E08093BD008F910F900FBE0F901F9071
:1004800018951F920F920FB60F9211242F933F933E
:100490004F935F936F937F938F939F93AF93BF938C
:1004A000EF93FF938ADEFF91EF91BF91AF919F9100
:1004B0008F917F916F915F914F913F912F910F900D
:1004C0000FBE0F901F9018951F920F920FB60F92AC
:1004D00011248F938091C400811108C085B180934D
:1004E000C00087B1807F87B981E007C0813049F4BF
:1004F00085B18093C200389A82E08093C400369A16
:100500000DC0823059F485B18093C10087B18560F8
:1005100087B91092C40081E08093BC008F910F9046
:100520000FBE0F901F9018951F920F920FB60F924B
:1005300011242F933F934F935F936F937F938F93E8
:100540009F93AF93BF93EF93FF936091C10070E0CF
:100550008091C20090E083DD8093BF009091C50040
:10056000811106C0963920F49F5F9093C50004C0A6
:10057000963910F41092C5008091BD00811152C0CF
:10058000209160002F3791F08091C6009091C700B4
:10059000892B51F58091C200281710F42F5F03C0FA
:1005A000821710F52150209360001EC081E090E07A
:1005B0009093C7008093C6008091C8008F5F80939E
:1005C000C800833388F08091C200803810F080E842
:1005D00003C08F3719F08EE7809360001092C80037
:1005E0001092C7001092C600209160002F3758F477
:1005F0008FE790E0821B9109880F991F9BBD8ABDF0
:1006000064DE81E00CC027FF0DC0822F90E080588F
:100610009109880F991F9BBD8ABD5ADE82E08093A5
:10062000BE0005C01BBC1ABC56DE1092BE00FF9176
:10063000EF91BF91AF919F918F917F916F915F915A
:100640004F913F912F910F900FBE0F901F901895D3
:10065000AA1BBB1B51E107C0AA1FBB1FA617B707E8
:1006600010F0A61BB70B881F991F5A95A9F7809504
:0C0670009095BC01CD010895F894FFCFD7
:10067C007F4443204D4F544F5220445249564552CB
:10068C002076312E30206279204B40524F4C004165
:10069C004443204348313A00414443204348323AD2
:1006AC00004144432056414C3A00504F5745523A72
:1006BC00004449523A0042415420564F4C3A0053A0
:0806CC0054415455533A00005B
:00000001FF
